{
  "contractName": "Ownable",
  "abi": [
    {
      "inputs": [],
      "stateMutability": "nonpayable",
      "type": "constructor"
    },
    {
      "inputs": [],
      "name": "isOwner",
      "outputs": [
        {
          "internalType": "bool",
          "name": "",
          "type": "bool"
        }
      ],
      "stateMutability": "view",
      "type": "function"
    }
  ],
  "bytecode": "0x6080604052348015600f57600080fd5b50336000806101000a81548173ffffffffffffffffffffffffffffffffffffffff021916908373ffffffffffffffffffffffffffffffffffffffff16021790555060da8061005e6000396000f3fe6080604052348015600f57600080fd5b506004361060285760003560e01c80638f32d59b14602d575b600080fd5b6033604d565b604051808215151515815260200191505060405180910390f35b60008060009054906101000a900473ffffffffffffffffffffffffffffffffffffffff1673ffffffffffffffffffffffffffffffffffffffff163373ffffffffffffffffffffffffffffffffffffffff161490509056fea26469706673582212204706f40ef90dc6b9521f98b9d18b4221d6995f801af2d261a650661da8d30f1864736f6c63430006010033",
  "source": "pragma solidity ^0.6;\n\ncontract Ownable{\n    address payable owner;\n\n    constructor() public{\n        owner = msg.sender;\n    }\n\n    modifier onlyOwner(){\n        require(isOwner(),'You are not the owner');\n        _;\n    }\n\n    function isOwner() public view returns(bool){\n        return (msg.sender == owner);\n    }\n}",
  "sourcePath": "/Users/iapptechnology/Documents/Learning/blockchain/truffle-react/contracts/Ownable.sol",
  "compiler": {
    "name": "solc",
    "version": "0.6.1+commit.e6f7d5a4.Emscripten.clang"
  },
  "schemaVersion": "3.0.21",
  "updatedAt": "2020-03-18T10:21:11.570Z",
  "devdoc": {
    "methods": {}
  },
  "userdoc": {
    "methods": {}
  }
}